:100000000C942A000C94C5000C943C000C943C0009
:100010000C943C000C94A0000C943C000C943C000C
:100020000C943C000C943C000C943C000C943E005E
:100030000C943C000C943C000C943C000C943C0050
:100040000C943C000C943C000C943C000C943C0040
:100050000C943C0011241FBECFE5D8E0DEBFCDBF1D
:1000600020E0A0E6B0E001C01D92AC36B207E1F797
:100070000E9422010C94A7010C9400001F920F9281
:100080000FB60F9211242F933F934F935F936F936B
:100090007F938F939F93AF93BF93EF93FF93809141
:1000A000670090916800A0916900B0916A008E335A
:1000B0009105A105B10560F40196A11DB11D8093C4
:1000C000670090936800A0936900B0936A0027C00E
:1000D000CE97A105B10518F180916B008F5F8093D9
:1000E0006B0080916100813039F460E00E941F0153
:1000F00061E081E00E941F0180916B00853039F43E
:10010000809162008F5F8093620010926B0010926A
:100110006700109268001092690010926A00FF91C7
:10012000EF91BF91AF919F918F917F916F915F916F
:100130004F913F912F910F900FBE0F901F901895E8
:100140001F920F920FB60F9211248F939F93AF932C
:10015000BF938091630090916400A0916500B0917D
:1001600066000196A11DB11D809363009093640009
:10017000A0936500B0936600BF91AF919F918F915E
:100180000F900FBE0F901F9018951F920F920FB6F1
:100190000F9211242F933F934F935F936F937F930D
:1001A0008F939F93AF93BF93EF93FF9380916000E2
:1001B0008F5F80936000813019F0823031F02EC063
:1001C0006FE282E00E94630129C0809163009091F8
:1001D0006400A0916500B09166004F97A105B1053C
:1001E00088F48091620081110DC08F5F809362005E
:1001F00010926B00109267001092680010926900D4
:1002000010926A000E94A50110926300109264008F
:10021000109265001092660010926000FF91EF91BD
:10022000BF91AF919F918F917F916F915F914F910E
:100230003F912F910F900FBE0F901F9018950E9425
:1002400023010895FFCF6430E8F58830D8F5613098
:1002500099F028F06230E9F0633041F108954BB332
:1002600021E030E0B90102C0660F771F8A95E2F7FE
:10027000CB0184278BBB089548B321E030E0B9015E
:1002800002C0660F771F8A95E2F7CB01842788BBEF
:10029000089545B321E030E0B90102C0660F771F31
:1002A0008A95E2F7CB01842785BB089542B321E00C
:1002B00030E0B90102C0660F771F8A95E2F7CB01E3
:1002C000842782BB089564BD8530F0F58230F9F053
:1002D00028F4882341F0813081F00895833009F1BA
:1002E000843049F1089585B5816085BD85B58D7FE0
:1002F00085BD85B58B7F85BD089585B58E7F85BD10
:1003000085B5826085BD85B58B7F85BD089585B532
:100310008E7F85BD85B58D7F85BD85B5846085BDA6
:10032000089585B58E7F85BD85B5826085BD85B50F
:10033000846085BD089585B5816085BD85B5826081
:1003400085BD85B5846085BD089515BC0895F89474
:02035000FFCFDD
:00000001FF
